:020000040801F1
:10000000D81900207D020108353D01087535010829
:10001000553C0108EB0601084D6E01080000000088
:10002000000000000000000000000000194001086E
:100030005F09010800000000A73F01082D400108EA
:100040009702010897020108970201089702010828
:100050009702010897020108610901087709010860
:10006000810901088B090108950901089702010817
:1000700097020108970201089702010897020108F8
:10008000970201089702010897020108000000008A
:100090000000000000000000000000009F090108AF
:1000A000014101089702010897020108970201081F
:1000B00097020108970201089702010897020108B8
:1000C00097020108970201089702010897020108A8
:1000D000970201089702010897020108000000003A
:1000E0006B0901089702010897020108000000004F
:1000F00000000000000000000000000031080108BE
:100100000000000097020108970201089702010809
:1001100000000000000000000000000000000000DF
:100120009702010897020108970201089702010847
:10013000970201080000000000000000000000001D
:10014000000000000000000000000000393D010830
:100150009702010897020108970201089702010817
:10016000970201089702010800000000000000004B
:10017000000000000000000000000000000000007F
:1001800000000000970201080000000000000000CD
:100190009702010800F002F800F061F80AA090E868
:1001A000000C82448344AAF10107DA4501D100F032
:1001B00056F8AFF2090EBAE80F0013F0010F18BF9E
:1001C000FB1A43F00103184758A4000078A400006C
:1001D0000A444FF0000C10F8013B13F0070408BF6D
:1001E00010F8014B1D1108BF10F8015B641E05D00B
:1001F00010F8016B641E01F8016BF9D113F0080FC0
:100200001EBF10F8014BAD1C0C1B09D16D1E58BF51
:1002100001F801CBFAD505E014F8016B01F8016B88
:100220006D1EF9D59142D6D37047000000230024FB
:1002300000250026103A28BF78C1FBD8520728BFF6
:1002400030C148BF0B607047642900F0FD8000207A
:1002500070471FB507F0E0FD1FBD10B510BD00F0E1
:100260000FFA1146FFF7F5FF06F0D4FE00F02DFA65
:1002700003B4FFF7F2FF03BC00F030FA09488047EF
:1002800009480047FEE7FEE7FEE7FEE7FEE7FEE778
:10029000FEE7FEE7FEE7FEE704480549054A064B90
:1002A00070470000ED40010895010108D8130020B7
:1002B000D8190020D8150020D815002053EA020CC8
:1002C00000F069802DE9F04B4FF00006002B1FBFB6
:1002D000B3FA83F503FA05F424FA05F65E4012BF7B
:1002E0001643B2FA82F502FA05F4C5F120051EBFE5
:1002F00022FA05FC44EA0C04203556EA044C4FEA85
:10030000144418BF641C4FF000084FF000099042DD
:1003100071EB030C39D3002919BFB1FA81F701FA47
:1003200007F6B0FA80F700FA07F6C7F120071EBFFC
:1003300020FA07FC46EA0C062037B6FBF4FCA7EBD4
:100340000507103F07F01F0BCBF120060CFA0BFB43
:100350002CFA06F644BFB3460026202FA4BF5E4603
:100360004FF0000B5BEA060C08BF4FF0010B19EBD6
:100370000B09ABFB027C48EB0608C01B06FB02CC5A
:100380000BFB03CC71EB0C01C1E70B460246414667
:100390004846BDE8F08B13B54FF000004FF0000168
:1003A000AFF30080BDE81C40704700000FB41CB5DF
:1003B0000C0007AA009001D02044401E074B7B444C
:1003C00069460190069800F036F9002C03D0694682
:1003D000002000F043F91CBC5DF814FBA5020000EE
:1003E0002DE9F0410E460446002020622046E168D7
:1003F000884730B3252805D0D4E901219047206AE9
:10040000401CF2E7E168204600278847050018D025
:10041000A5F14100192802D820354FF40067324673
:10042000294620462760FFF70FFF40B1012804D07E
:10043000F61D26F007060836D8E7361DD6E728460B
:10044000DAE7206ABDE8F0812DE9F0410646002494
:1004500010687529314616A510D0AFF3008000282A
:1004600002DA404213A507E031688A0701D512A5D8
:1004700002E0490704D511A5012401E0AFF3008093
:1004800000210A2206F1240709E0B0FBF2FCB0FBD0
:10049000F2F302FB1C00303078541846491C002847
:1004A000F3D123462A463046BDE8F04100F064B857
:1004B000000000002D0000002B00000020000000C4
:1004C00010B5203AC0F00B80B1E81850203AA0E8EF
:1004D0001850B1E81850A0E81850BFF4F5AF5FEA23
:1004E000027C24BFB1E81850A0E8185044BF18C9D6
:1004F00018C0BDE810405FEA827C24BF51F8043B7D
:1005000040F8043B08BF7047D20728BF31F8023BD0
:1005100048BF11F8012B28BF20F8023B48BF00F864
:10052000012B70474FF0000200B5134694469646E3
:10053000203922BFA0E80C50A0E80C50B1F12001F6
:10054000BFF4F7AF090728BFA0E80C5048BF0CC0A4
:100550005DF804EB890028BF40F8042B08BF704702
:1005600048BF20F8022B11F0804F18BF00F8012B74
:1005700070477047704770472DE9F0470D46994620
:100580009246044600F124080168880604D5E06913
:1005900021F01001216000E00120A84201DD471B8D
:1005A00000E00027A1697A1902EB0900081AA0618E
:1005B0002078C00602D42046AFF30080002608E071
:1005C000D4E901211AF806009047206A401C761CE5
:1005D00020624E45F4DB2078C0060AD52046AFF3F2
:1005E000008006E0D4E9012130209047206A401CB9
:1005F0002062381EA7F10107F4DC07E0D4E90121ED
:1006000018F805009047206A401C2062281EA5F1BA
:100610000105F3DC2046AFF300802078000602D508
:100620000220BDE8F0870120FBE7000001694A1CB9
:1006300002610878704700B58FB0CDE90131002123
:10064000059105497944CDE9031011466846FFF745
:10065000C7FE0FB000BD0000E5FFFFFF0A6802F80B
:10066000010B0A607047D1E900239A4202D2531C61
:100670000B60107070470000004870477413002032
:100680007546FFF7F9FFAE4605006946534620F070
:100690000700854618B020B5FFF7FEFDBDE82040F5
:1006A0004FF000064FF000074FF000084FF0000B2E
:1006B00021F00701AC46ACE8C009ACE8C009ACE8E1
:1006C000C009ACE8C0098D46704710B50446AFF3C9
:1006D00000802046BDE81040FFF7CABD0149182040
:1006E000ABBEFEE726000200704700BFFEE7002019
:1006F000704700207047000070B504460D46424820
:1007000004F018F910B14FF0FF3070BD002006E082
:100710003D49D1F8BC12095C3C4A1154401C642884
:10072000F6D33A48407807286BD2DFE800F06A0435
:100730000C262A4657000120354908703348807836
:10074000344908705DE00120334908702F488078F3
:10075000012804D0022806D003280CD107E001208C
:100760002E49087007E002202C49087003E003209E
:100770002A49087000BF00BF43E0012028490870E3
:100780003FE00120274908702048807820B10128E7
:1007900007D002280FD109E00020204981F86B0022
:1007A00009E001201D4981F86B0004E002201B498B
:1007B00081F86B0000BF00BF23E0012014490870DE
:1007C0001248807820B1012806D11449487003E00E
:1007D00000201249487000BF00BF12E001201249FA
:1007E00008700A48807810B1012808D103E0002081
:1007F0000E49087003E001200C49087000BF00BFDB
:1008000000BF00BF002080E7AC080020880D00205A
:100810008A000020880000208B00002008020020B1
:10082000890000208C0000208D0000208E00002018
:1008300010B5064800F0FCF8044800F0F5F801286F
:1008400003D10821024802F00FFE10BD040700206A
:10085000740600200146087810381823B0FBF3F224
:100860000848805CC865032A05D908686FF3090049
:10087000001D886503E008686FF309008865886DCE
:100880007047000000A60108014600208A6A8B69B3
:10089000CBB932B1012A0DD0022A03D0032A10D1DC
:1008A0000EE000BFCB6A03F08073B3F1807F00D10C
:1008B000012007E0CB6AB3F1C07F00D1012001E045
:1008C00000E000BF34E08B69B3F5005F1AD132B1AC
:1008D000012A07D0022A03D0032A11D10AE000BF5F
:1008E00001200EE0CB6A03F08073B3F1807F00D16A
:1008F000012006E0CB6AB3F1C07F00D1012000E007
:1009000000BF15E032B1012A05D0022A04D0032A23
:100910000CD103E000BF00BF012008E0CB6A03F068
:100920008073B3F1807F00D1012000E000BF00BFE1
:10093000704730B50468246824F4802405682C606E
:10094000046863608468402C04D10468A260046871
:10095000E16003E00468A1600468E26030BD7047B4
:1009600010B5012000F08CFA10BD10B54FF4806076
:1009700000F086FA10BD10B5022000F081FA10BD1B
:1009800010B5042000F07CFA10BD10B5082000F06E
:1009900077FA10BD10B5102000F072FA10BD10B536
:1009A000202000F06DFA4FF4807000F069FA4FF4E7
:1009B000007000F065FA10BD00B503F0F5FB03F020
:1009C000ABFB00BD72B600BFFEE7000070B50A4881
:1009D0000468001D0568001D0668344454B10822EF
:1009E0000649204602F059FF0422044910312846E6
:1009F00002F053FF70BD0000107AFF1F6E00002050
:100A0000014691F83500022803D080204865012076
:100A10007047052081F835000868006820F0010063
:100A20000A6810600020F3E7014691F8350070472E
:100A3000F8B50446002000908C4800684FF4165129
:100A4000B0FBF1F7A56D2E6894F85C100820884083
:100A5000304098B12068006800F0040070B1206850
:100A6000006820F004002168086094F85C100820F9
:100A70008840A860606D40F00100606594F85C10EB
:100A800001208840304068B12068406900F0800053
:100A900040B194F85C1001208840A860606D40F07F
:100AA0000200606594F85C1004208840304068B112
:100AB0002068006800F0020040B194F85C10042047
:100AC0008840A860606D40F00400606594F85C1098
:100AD00010208840304078B32068006800F008009B
:100AE00050B394F85C1010208840A860206800681B
:100AF00000F4802080B12068006800F4002028B94C
:100B0000206CC8B12046216C884715E0A06C98B1D4
:100B10002046A16C88470FE02068006800F48070D0
:100B200028B92068006820F0080021680860206C5F
:100B300010B12046216C884794F85C102020884032
:100B40003040002865D02068006800F010000028C0
:100B50005FD094F85C1020208840A86094F835009D
:100B6000052828D12068006820F016002168086058
:100B70002068406920F0800021684861206C08B935
:100B8000A06C28B12068006820F008002168086087
:100B900094F85C103F208840A860012084F835005C
:100BA00000BF002084F8340000BF206D10B1204643
:100BB000216D8847F8BD2068006800F4802080B16E
:100BC0002068006800F4002028B9606C10B120464D
:100BD000616C88471DE0E06BD8B12046E16B884727
:100BE00017E02068006800F4807068B92068006829
:100BF00020F0100021680860012084F8350000BF53
:100C0000002084F8340000BFE06B10B12046E16B97
:100C10008847606D38B3606D00F00100F0B10520C9
:100C200084F835002068006820F001002168086021
:100C300000BF0098401C0090B84200D905E0206831
:100C4000006800F001000028F3D100BF012084F803
:100C5000350000BF002084F8340000BFE06C10B104
:100C60002046E16C884700BFA4E700003001002067
:100C70002DE9F0410446002500F0FAF9074614B9C1
:100C80000120BDE8F081606A00B100BF022084F855
:100C9000350000BF002084F8340000BF20680068E1
:100CA00020F00100216808600AE000F0E1F9C01BB3
:100CB000052805D920206065032084F83500E0E789
:100CC0002068006800F001000028EED12068056867
:100CD00021480540D4E901010843E168084321693E
:100CE000084361690843A1690843E1690843216A2F
:100CF00008430543606A042803D1D4E90B01084383
:100D00000543206805602068456925F00705606A8D
:100D10000543606A04280DD1A06A0543E06A48B122
:100D20002046FFF7B1FD28B140206065012084F81E
:100D30003500A6E7206845612046FFF78BFD064693
:100D400094F85C103F208840B0600020606501206E
:100D500084F83500002094E73F8010F02DE9F0473B
:100D600004460D4616461F464FF00008D4F858902A
:100D700000BF94F83400012802D10220BDE8F087BA
:100D8000012084F8340000BF94F83500012825D1F3
:100D9000022084F83500002060653B463246294633
:100DA0002046FFF7C6FD94F85C103F208840C9F844
:100DB00008002068006840F0160021680860206C78
:100DC00028B12068006840F00800216808602068A9
:100DD000006840F001002168086006E000BF0020C4
:100DE00084F8340000BF4FF002084046C6E7000018
:100DF00070B5044600F03CF906462546681C10B163
:100E000004480078054400BF00F032F9801BA84276
:100E1000FAD370BD2C010020042803D11121174AF8
:100E200011702AE0012803D10221144A117024E034
:100E3000022803D18021114A11701EE0082803D135
:100E400004210E4A117018E0102803D101210B4A29
:100E5000117012E0202803D11021084A11700CE013
:100E6000B0F5807F03D14021044A117005E0B0F550
:100E7000007F02D12021014A117070471800002024
:100E800010B5044604480068204020B102480460C0
:100E90002046FFF7C1FF10BD143C0140F8B50246E3
:100EA0000B460025002400200021C7E0012606FA99
:100EB00001F51E6806EA0504AC4274D11E7906F0FD
:100EC0000306012E04D01E7906F00306022E13D16C
:100ED00090684F000326BE40B0434F00DE68BE401E
:100EE00030439060506801268E40B0431E79C6F3AF
:100EF00000168E40304350601E7906F00306032E24
:100F000009D0D0684F000326BE40B0434F009E6812
:100F1000BE403043D0601E7906F00306022E13D186
:100F2000CF0802F1200656F827004E07F70E0F26CD
:100F3000BE40B0434F07FF0E1E69BE403043CF088E
:100F400002F1200646F8270010684F000326BE4035
:100F5000B0431E7906F003064F00BE4030431060D8
:100F60005E6806F44036002E67D000BF002600966B
:100F7000344E366846F48046324F3E603E46366810
:100F800006F48046009600BF00BF2F4E8F0856F82B
:100F900027008E07370F0F26BE40B0432B4EB242BC
:100FA00002D1002615E048E0294EB24201D10126C7
:100FB0000FE0284EB24201D102260AE0264EB2428C
:100FC00001D1032605E0254EB24201D1042600E0FE
:100FD00007268F073F0FBE4030431B4E8F0846F851
:100FE00027001F4E3068A0435E6806F4801606B1E5
:100FF00020431B4E3060361D3068A0435E6806F407
:10100000001606B12043164E361D3060144E361FB2
:101010003068A0435E6806F4003606B12043104EE7
:10102000361F3060361F3068A0435E6806F4803695
:1010300006B120430A4E083E3060491C1029FFF4D7
:1010400035AFF8BD44380240083801400000024086
:101050000004024000080240000C02400010024060
:10106000083C01400AB1816101E00B0483617047D3
:1010700001480068704700002401002070B5044654
:101080000CB9012070BD94F83D0028B9002084F807
:101090003C00204600F08CF9242084F83D002068B4
:1010A000006820F00100216808602068006840F4B2
:1010B0000040216808602068006820F40040216832
:1010C000086001F081FA05465C496068884206D8EC
:1010D0005B48854201D2012007E0002005E0594825
:1010E000854201D2012000E00020012800D1C9E79B
:1010F0005548B5FBF0F62068406820F03F003043CB
:10110000216848604D496068884201D8701C07E03A
:101110004FF4967070434FF47A71B0FBF1F0401CBD
:101120002168096A21F03F010843216808624349A8
:101130006068884214D8681E61684900B0FBF1F00D
:10114000401CC0F30B00042801D204203DE0681EBF
:1011500061684900B0FBF1F0401CC0F30B0034E0C3
:10116000A06838B9681E616801EB4101B0FBF1F07D
:10117000401C0AE0681E616801EBC10202EB01112C
:10118000B0FBF1F0401C40F48040C0F30B0008B904
:1011900001201AE0A06848B9681E616801EB4101AE
:1011A000B0FBF1F0401CC0F30B000CE0681E61685E
:1011B00001EBC10202EB0111B0FBF1F0401CC0F3E6
:1011C0000B0040F4804040F400402168C9694CF6AF
:1011D000FF72914308432168C861D4E907010843BD
:1011E0002168096821F0C001084321680860D4E93A
:1011F000031008432168896848F2FF32914308438D
:1012000021688860D4E9050108432168C96821F094
:10121000FF0108432168C8602068006840F00100B1
:101220002168086000202064202084F83D00002010
:10123000206384F83E0000BF24E70000A086010080
:1012400080841E0000093D0040420F002DE9FC5F34
:1012500004460F4690469946DDE90CAB0E9EFFF71B
:1012600007FF054694F83D0020287DD1192301226F
:101270004D492046009502F03DFA10B10220BDE82C
:10128000FC9F00BF94F83C00012801D10220F6E742
:10129000012084F83C0000BF2068006800F00100D5
:1012A00028B92068006840F00100216808602068C3
:1012B000006820F4006021680860212084F83D0067
:1012C000402084F83E0000202064C4F824A0A4F844
:1012D0002AB0608D20853548E0624B46424639464B
:1012E0002046CDE9006502F067F908B10120C6E7A4
:1012F00031E02A463146204602F0A1FA50B1206C76
:10130000042805D12068006840F400702168086056
:101310000120B4E7606A007821680861606A401CB7
:101320006062208D401E2085608D401E6085206893
:101330004069C0F3800070B1208D60B1606A0078B0
:1013400021680861606A401C6062208D401E208513
:10135000608D401E6085208D0028CAD12A46314606
:10136000204602F099F900E01CE050B1206C0428FE
:1013700005D12068006840F40070216808600120F1
:101380007DE72068006840F4007021680860202034
:1013900084F83D00002084F83E0000BF84F83C0043
:1013A00000BF6CE702206AE7020010000000FFFFA8
:1013B00010B586B00446142101A8FFF7B3F84349DD
:1013C000206888422FD100BF00200090404800686C
:1013D00040F002003E4908600846006800F0020044
:1013E000009000BF00BFC02001901220029000209A
:1013F0000390032004900420059001A93548FFF7CD
:101400004DFD00BF0020009031481030006840F4CE
:1014100000102F49103108600846006800F40010E1
:10142000009000BF50E02C49206888424CD100BF9A
:10143000002000902648006840F001002449086020
:101440000846006800F00100009000BF00BF00BF28
:10145000002000900846006840F00200086008463E
:10146000006800F00200009000BF00BF88150190E6
:101470001220029000200390032004900420059085
:1014800001A91648FFF70AFD1020019012200290D2
:1014900000200390032004900920059001A90D4825
:1014A000FFF7FCFC00BF00200090094810300068E6
:1014B00040F400000649103108600846006800F456
:1014C0000000009000BF00BF06B010BD00540040F7
:1014D0003038024000040240005C0040000002403E
:1014E00003480068034909780844014908607047C7
:1014F000240100202C01002010B50D48006840F4A4
:1015000000700B4908600846006840F4806008607D
:101510000846006840F480700860032000F0A2F8DC
:101520000F2000F007F800F02BF8002010BD00009D
:10153000003C024070B504460E4800784FF47A71C2
:10154000B1FBF0F00C490968B1FBF0F5284601F059
:10155000F1FA08B1012070BD102C07D200222146FB
:10156000501E00F041F80548046001E00120F2E758
:101570000020F0E72C01002030010020280100208D
:1015800008B500BF002000900E48006840F480407D
:101590000C4908600846006800F48040009000BFD5
:1015A00000BF00BF00200090081F006840F080507E
:1015B000091F08600846006800F08050009000BFD6
:1015C00000BF08BD4438024001460846002809DB38
:1015D00000F01F0301229A4043099B0003F1E0231E
:1015E000C3F8002100BF70472DE9F05F80460D462B
:1015F0001646002705F02CFC074639462A46334696
:1016000001F00700C0F1070ABAF1040F02D94FF048
:10161000040A01E0C0F1070AD14600F1040ABAF158
:10162000070F02D24FF0000A01E0A0F1030AD446EE
:101630004FF0010A0AFA09FAAAF1010A0AEA020AB3
:101640000AFA0CFA4FF0010B0BFA0CFBABF1010B91
:101650000BEA030B4AEA0B042146404605F000FC66
:10166000BDE8F09F00BF00F00702064B19684FF677
:10167000FF031940044B0B4343EA0221014B19605D
:1016800000BF70470CED00E00000FA05704702460D
:101690001068416200207047F0B50346154618688F
:1016A000446A21B944EA05401E68B06219E018682E
:1016B000806A04EB1044002208E0186800F582708C
:1016C00050F8220004EB1044501CC2B2481E904255
:1016D000F3D844EA0547186800F582704E1E40F8BA
:1016E00026700020F0BD10B50446D4F8080503F0BC
:1016F0007CFE10BD70B504460D4605EBC50304F134
:101700003C0101EB83010A692946D4F8080503F07E
:1017100067FD70BD70B504460D4605EBC50304F5C5
:101720001F7101EB83010A692946D4F8080503F00B
:10173000DBFD70BD10B50446D4F8080503F058FE73
:1017400010BD2DE9F04104460D4605F080008028CB
:1017500008D105F00F0000EBC00104F13C0000EBE4
:10176000810607E005F00F0000EBC00104F51F70D3
:1017700000EB81063146206805F024F9074638461B
:10178000BDE8F08170B504460E4606F08000802862
:101790000AD106F00F0000EBC00104F13C0000EBA1
:1017A00081050120687009E006F00F0000EBC00120
:1017B00004F51F7000EB81050020687006F00F0033
:1017C000287000BF94F8BC04012801D1022070BD2C
:1017D000012084F8BC0400BF2946206804F0D2FB35
:1017E00000BF002084F8BC0400BF00BFEFE770B565
:1017F00004460E4606F00F006168884201D90120B8
:1018000070BD06F0800080280AD106F00F0000EBC2
:10181000C00104F13C0000EB81050120687009E083
:1018200006F00F0000EBC00104F51F7000EB81050E
:10183000002068700020A87006F00F00287000BF1C
:1018400094F8BC04012801D10220D9E7012084F8D2
:10185000BC0400BF2946206804F07CFE00BF0020C5
:1018600084F8BC0400BF00BFCAE72DE9F047054675
:101870000E4690461F464FF0000906F08000802873
:101880000AD106F00F0000EBC00105F13C0000EBAF
:1018900081040120607009E006F00F0000EBC00138
:1018A00005F51F7000EB81040020607006F00F004A
:1018B0002070C4F80C802771607808B120782081EE
:1018C000022F01D10020607100BF95F8BC040128EF
:1018D00002D10220BDE8F087012085F8BC0400BFDA
:1018E0002146286804F064FA00BF002085F8BC0493
:1018F00000BF4846EEE72DE9F04104460E46174684
:10190000984606F00F0000EBC00104F51F7000EBD5
:1019100081052F61C5F8188000202862687006F0E4
:101920000F0028702069012800D16F6106F00F00B8
:1019300028B9227C2946206804F0E6FC04E0227CD9
:101940002946206804F09AFE0020BDE8F08170B5B9
:1019500004460D4605F00F006168884201D9012058
:1019600070BD05F0800080280AD105F00F0000EB63
:10197000C00104F13C0000EB81060120707007E01B
:1019800005EBC50104F51F7000EB810600207070A7
:101990000120B07005F00F00307000BF94F8BC0457
:1019A000012801D10220DBE7012084F8BC0400BF3C
:1019B0003146206804F015FE05F00F0028B9217C9F
:1019C00004F2C442206804F08DFD00BF002084F8BA
:1019D000BC0400BF00BFC3E72DE9F04104460E463A
:1019E0001746984606F00F0000EBC00104F13C00DA
:1019F00000EB81052F61C5F81880002028620120C6
:101A0000687006F00F0028702069012800D16F610E
:101A100006F00F0028B9227C2946206804F074FCE7
:101A200004E0227C2946206804F028FE0020BDE85E
:101A3000F0812DE9FE4F0446D4F800B05E462068E0
:101A400005F0A7F8002874D1206805F0E1F808B97E
:101A5000BDE8FE8F40F608008059C0F30D20C4F8A1
:101A6000FC04206805F0D4F800F00200022805D13B
:101A70002068406900F0020021684861206805F094
:101A8000C7F800F01000102845D12068806920F0C8
:101A9000100021688861DBF8209009F00F0000EB4E
:101AA000C00104F51F7000EB810AC9F3434002280E
:101AB0001AD147F6F07009EA000030B3C9F30A12F0
:101AC0005846DAF8101005F0A8F8C9F30A11DAF848
:101AD00010000844CAF81000C9F30A11DAF820000F
:101AE0000844CAF8200010E0C9F3434006280CD18E
:101AF000082204F2C441584605F08FF8C9F30A11D0
:101B0000DAF820000844CAF820002068806940F014
:101B1000100021688861206805F07AF800F4002040
:101B2000B0F5002F7BD10025206805F041F8029028
:101B300072E0E1E2029800F00100002868D0E9B20A
:101B4000206805F058F8804608F0010048B10121EE
:101B500006F5306000EB451081602946204602F012
:101B600025F908F00800082809D1082106F5306099
:101B700000EB451081602946204602F0E5F808F0A8
:101B80001000102805D1102106F5306000EB45103B
:101B9000816008F00200022824D1DBF8140000F074
:101BA0008000802807D140F60400805940F480610D
:101BB00040F60400815105EBC50104F51F7000EBF0
:101BC000810A9AF80300012806D100208AF8030050
:101BD000E9B2204600F09BFA022106F5306000EBE6
:101BE0004510816008F02000202805D1202106F54D
:101BF000306000EB4510816008F40050B0F5005FE4
:101C000006D14FF4005106F5306000EB45108160BD
:101C10006D1C029840080290029800288AD1206822
:101C200004F0F6FF00F48020B0F5802F7DD120680D
:101C300004F0B4FF029000259AE0029800F0010041
:101C4000002873D0E9B2206804F0BCFF804608F099
:101C50000100F0B305F00F0101208840019040F62B
:101C600034008159019821EA000040F6340188517E
:101C7000012106F5106000EB451081602069012804
:101C800024D105EBC50104F13C0000EB810005EB1C
:101C9000C502016904F13C0000EB8200C068014408
:101CA00005EBC50204F13C0000EB820001616DB957
:101CB00005EBC50104F13C0000EB8100806928B907
:101CC00004F2C4420121206804F00CFCE9B2204671
:101CD00000E001E0FFF70EFD08F00800082805D13C
:101CE000082106F5106000EB4510816008F0100037
:101CF000102805D1102106F5106000EB4510816019
:101D000008F04000402805D1402106F5106000EBA6
:101D10004510816008F0020002281DD1294658466E
:101D200004F0F8FE05EBC50101E025E01CE004F13C
:101D30003C0000EB810A9AF80300012806D100203C
:101D40008AF80300E9B2204600F0D8F9022106F52E
:101D5000106000EB4510816008F08000802803D1FE
:101D60002946204602F0C4F86D1C029840080290F3
:101D7000029800287FF461AF206804F049FF00F06A
:101D80000040B0F1004F1CD140F60400805920F013
:101D9000010140F60400815194F8F404012807D1B0
:101DA000002084F8F40400212046FFF76FFC02E0D5
:101DB000204600F0CFFA2068406900F0004021681A
:101DC0004861206804F024FF00F40060B0F5006F63
:101DD0000ED140F60800805900F0010010B12046F5
:101DE00000F010FB2068406900F400602168486141
:101DF000206804F00DFF00F48050B0F5805F7ED1C4
:101E000040F60400805920F0010140F604008151A1
:101E10001021206804F07EFE002732E04FF67F316B
:101E200006F5106000EB4710816006F5106000EBCE
:101E30004710006820F4001106F5106000EB471011
:101E400001604FF67F3106F5306000EB471081608E
:101E500006F5306000EB4710006820F4001106F52D
:101E6000306000EB4710016006F5306000EB471072
:101E7000006840F0006106F5306000EB471001603B
:101E80007F1C6068B842C9D840F61C00805940F0F9
:101E9000011140F61C008151206B70B1D6F8840806
:101EA00040F00B01C6F8841840F64400805940F019
:101EB0000B0140F6440081510FE040F614008059B8
:101EC00042F22B01084340F614018851081F805943
:101ED00040F00B014FF401608151D6F8000820F466
:101EE000FE60C6F80008217C04F2C442206804F0B9
:101EF000F9FA2068406900F48050216800E000E0B1
:101F00004861206804F084FE00F40050B0F5005FE2
:101F100017D1206803F0B4FF206804F027FEE060CA
:101F200000F04CFB0090227B2068009904F0F8FE42
:101F3000204600F0FDF92068406900F40050216857
:101F40004861206804F064FE00F00800082808D109
:101F5000204600F006FA2068406900F00800216879
:101F60004861206804F054FE00F08000802818D1F9
:101F7000DBF8180020F08000CBF8180001250DE0F8
:101F800005EBC50104F51F7000EB8100C078012846
:101F900003D1E9B22046FFF7D4FB6D1C6068A8426C
:101FA000EED8206804F034FE00F48010B0F5801FF5
:101FB0002DD1012522E006F5106000EB4510D0F888
:101FC000009005EBC50104F13C0000EB81000079B5
:101FD000012812D109F00040B0F1004F0DD10121CC
:101FE00005EBC50204F13C0000EB8200C170E8B2D1
:101FF00040F080012046FFF7A4FB6D1C6068A842FA
:10200000D9D82068406900F48010216848612068B0
:1020100004F0FEFD00F40010B0F5001F44D10125CE
:1020200038E006F5306000EB4510D0F8009005EB85
:10203000C50104F51F7000EB81000079012828D14B
:1020400009F00040B0F1004F23D109F4803094F83A
:10205000FC1401F0010188421BD1012105EBC502EE
:1020600004F51F7000EB8200C170DBF8180040F02F
:102070008000CBF81800DBF8140000F0800040B9B5
:1020800040F60400805940F4007140F6040081518C
:1020900003E06D1C6068A842C3D800BF2068406997
:1020A00000F4001021684861206804F0B1FD00F0E0
:1020B0008040B0F1804F08D12046FFF714FB206824
:1020C000406900F0804021684861206804F0A0FD6C
:1020D00000F0040004280FD12068D0F8049009F023
:1020E0000400042802D12046FFF724FB2068406842
:1020F00040EA09002168486000BFA9E470B50446C1
:102100000D462946D4F8080503F0D6F970BD70B520
:1021100004460D462946D4F8080503F0F1F970BDD0
:1021200070B58AB0044614B901200AB070BD2668A3
:1021300094F8BD0428B9002084F8BC04204600F0BF
:10214000A3F8032084F8BD04F06B00F4807008B994
:1021500000212161206804F0CFF8282204F1100149
:102160006846FEF7ADF994E80F0003F09DFE20B13C
:10217000022084F8BD040120D7E70021206804F084
:102180007CFD002531E0012105EBC50204F13C0096
:1021900000EB8200417005EBC50104F13C0000F842
:1021A000215005EBC50100EB81000581002105EB05
:1021B000C50204F13C0000EB8200017105EBC50291
:1021C00004F13C0000EB8200C16005EBC50204F1A4
:1021D0003C0000EB8200016105EBC50204F13C000C
:1021E00000EB82008161681CC5B26068A842CAD851
:1021F00000252AE0002105EBC50204F51F7000EB65
:102200008200417005EBC50104F51F7000F82150F4
:10221000002105EBC50200EB8200017105EBC50250
:1022200004F51F7000EB8200C16005EBC50204F5E8
:102230001F7000EB8200016105EBC50204F51F7001
:1022400000EB82008161681CC5B26068A842D1D8E9
:10225000282204F110016846FEF732F994E80F00D5
:1022600003F05AFF20B1022084F8BD0401205CE78E
:10227000002084F83800012084F8BD04206803F0B1
:1022800039FF002051E7000010B586B00446142144
:1022900001A8FEF747F92068B0F1A04F42D100BF76
:1022A000002000902048006840F001001E490860AE
:1022B0000846006800F00100009000BF00BF4FF426
:1022C000C05001900220029000200390032004904F
:1022D0000A20059001A91548FEF7E0FD00BF12484D
:1022E000001D006840F080000F49091D086000BF14
:1022F000002000900C481430006840F480400A49E7
:10230000143108600846006800F48040009000BF67
:1023100000BF00BF002211464320FFF765F94320AC
:10232000FFF752F906B010BD3038024000000240FD
:1023300070B504460125E068022801D0FEF742FB93
:102340002946D4F8080503F084F9D4F8080503F009
:102350002BF970BD10B50446D4F8080503F05AF9FE
:1023600010BD10B50446D4F8080503F05EF910BDA1
:1023700070B504460D4600BF94F8BC04012801D195
:10238000022070BD012084F8BC0400BF84F83850DE
:102390002946206804F0A5FC00BF002084F8BC0496
:1023A00000BF00BFEDE710B5044604F2C441D4F805
:1023B000080503F065F910BD70B50446256800BF37
:1023C00094F8BC04012801D1022070BD012084F8DA
:1023D000BC0400BFA06A012806D1A069012803D06F
:1023E000A86B40F48030A863206804F061FB20688B
:1023F00003F06EFE00BF002084F8BC0400BF00BFE5
:10240000E3E7000010B50446D4F8080503F095F999
:102410002068D0F8000E40F001002168C1F8000EDD
:10242000206A28B10348006840F0060001490860AE
:1024300010BD000010ED00E070B504460D460CB96B
:10244000012070BD5848006800F00700A84209D27A
:1024500055490D700846006800F00700A84201D0F9
:102460000120EEE7207800F0020002281DD120783C
:1024700000F00400042805D14C48006840F4E05006
:102480004A490860207800F00800082805D147482C
:10249000006840F46040454908604448006820F006
:1024A000F000A168084341490860207800F001006D
:1024B000A8B36068012807D13C4808380068C0F319
:1024C0004040B8B90120BCE76068022802D06068CB
:1024D000032807D1354808380068C0F3406048B980
:1024E0000120AEE7314808380068C0F3400008B961
:1024F0000120A6E72D48006820F00300616808432A
:102500002A490860FEF7B4FD064609E0FEF7B0FD73
:10251000801B41F28831884202D9032091E707E00D
:102520002248006800F00C006168B0EB810FEDD12B
:102530001D48006800F00700A84209D91A490D702B
:102540000846006800F00700A84201D0012078E7A3
:10255000207800F00400042807D11448006820F413
:10256000E050E168084311490860207800F0080055
:10257000082808D10D48006820F46040216940EA2D
:10258000C1000A49086000F02FF808490968C1F342
:102590000311074A515CC8400649086006480068B4
:1025A000FEF7C8FF00204CE7003C0240083802401C
:1025B00008A6010830010020280100200148006819
:1025C000704700003001002000B5FFF7F7FF044915
:1025D0000968C1F38221034A515CC84000BD000074
:1025E0000838024018A601082DE9F047002400250C
:1025F0000026A1462548006800F00C0020B1042800
:1026000005D008283AD105E0DFF8849039E0DFF8FA
:10261000849036E01D48001F006800F03F041B480E
:10262000001F006800F4800078B11A481749091F9C
:102630000968C1F38811A0FB0170014622460023FE
:102640003846FDF73BFE05460EE011480F49091FCD
:102650000968C1F38811A0FB0170014622460023DE
:102660003846FDF72BFE05460848001F0068C0F3FA
:102670000140401C4600B5FBF6F902E0DFF810907F
:1026800000BF00BF4846BDE8F087000008380240A0
:102690000024F40040787D01F8B504460CB901200F
:1026A000F8BD207800F00100002874D0F9480068D7
:1026B00000F00C0004280DD0F648006800F00C0073
:1026C000082813D1F348001F006800F48000B0F51B
:1026D000800F0BD1EF4808380068C0F34040002855
:1026E00059D06068002856D10120D9E700BF606842
:1026F000B0F5803F08D1E7480838006840F48030E2
:10270000E449083908601EE06068B0F5A02F0DD1DB
:10271000E0480838006840F48020DE490839086045
:102720000846006840F4803008600CE0D94808385A
:10273000006820F48030D7490839086008460068EE
:1027400020F48020086000BF606890B1FEF790FC24
:10275000054606E0FEF78CFC401B642801D90320E7
:102760009EE7CC4808380068C0F340400028F1D00C
:1027700011E0FEF77DFC054606E0FEF779FC401B04
:10278000642801D903208BE7C24808380068C0F3E9
:1027900040400028F1D1207800F0020002285FD1EB
:1027A000BC48006800F00C0058B1BA48006800F05E
:1027B0000C0008281CD1B748001F006800F48000F6
:1027C000B0B9B44808380068C0F3400020B1E068F0
:1027D000012801D0012063E7AE480838006820F0E6
:1027E000F800216940EAC100AA490839086037E0C9
:1027F000E06800B30120A8490860FEF739FC0546EF
:1028000006E0FEF735FC401B022801D9032047E70C
:10281000A04808380068C0F340000028F1D09D4867
:102820000838006820F0F800216940EAC1009949A1
:102830000839086014E0002097490860FEF718FC8A
:10284000054606E0FEF714FC401B022801D90320D0
:1028500026E7904808380068C0F340000028F1D10E
:10286000207800F0080008282CD16069A8B1012068
:102870008A490860FEF7FCFB054606E0FEF7F8FB18
:10288000401B022801D903200AE782486C30006807
:10289000C0F340000028F1D014E000207F49086018
:1028A000FEF7E6FB054606E0FEF7E2FB401B0228CA
:1028B00001D90320F4E677486C300068C0F340008B
:1028C0000028F1D1207800F00400042870D10027FE
:1028D00070483830006800F0805090B900BF002088
:1028E00000906C483830006840F0805069493831B9
:1028F00008600846006800F08050009000BF00BFEC
:1029000001276748006800F48070B0B96448006827
:1029100040F4807062490860FEF7AAFB054606E0B5
:10292000FEF7A6FB401B022801D90320B8E65C484D
:10293000006800F480700028F2D000BFA068012871
:1029400008D154486830006840F0010051496831AE
:1029500008601DE0A06805280DD14E486830006869
:1029600040F004004B49683108600846006840F0B8
:10297000010008600CE047486830006820F0010062
:102980004449683108600846006820F00400086087
:1029900000BFA068A8B1FEF76BFB054609E0FEF793
:1029A00067FB401B41F28831884202D9032077E659
:1029B00026E0384868300068C0F340000028EED0B8
:1029C00013E0FEF755FB054608E0FEF751FB401B00
:1029D00041F28831884201D9032061E62D486830F0
:1029E0000068C0F340000028EFD1012F07D129482B
:1029F0003830006820F0805026493831086000BF28
:102A0000A069002845D02348006800F00C00082881
:102A10005DD0A069022845D100201F490866FEF755
:102A200027FB054606E0FEF723FB401B022801D9E1
:102A3000032035E6174808380068C0F340600028D6
:102A4000F1D1D4E907010843616A40EA811101220A
:102A5000A06AC2EB500041EA00412C20005D41EA2F
:102A600000600C49091F086001200B490866FEF749
:102A7000FFFA054606E0FEF7FBFA401B022801D9E3
:102A800003200DE6034808380068C0F340600028C2
:102A9000F1D049E00838024000004742800E47422A
:102AA00000700040002021490866FEF7E1FA054663
:102AB00006E0FEF7DDFA401B022801D90320EFE50E
:102AC0001B480068C0F340600028F2D12CE0A069E8
:102AD000012800D1E4E51648001D0668A069012818
:102AE00020D006F48001E06981421BD106F03F014D
:102AF000206A814216D147F6C0703040616AB0EB5F
:102B0000811F0FD106F440310122A06AC2EB5000B0
:102B1000B1EB004F06D106F070612C20005DB1EBE7
:102B2000006F01D00120BBE50020B9E5000047425D
:102B30000038024070B504462546681EB0F1807F1B
:102B400001D301200FE0681E4FF0E02148610F2102
:102B50004FF0FF3004F084F900204FF0E02188614D
:102B600007200861002070BD7047704730B50246ED
:102B70000B4600BF92F83C00012801D1022030BD75
:102B8000012082F83C0000BF022082F83D0010685E
:102B900044681068816824F0700418680443106861
:102BA0004460144D1068A84213D01068B0F1804FF3
:102BB0000FD0114D1068A8420BD0104D1068A842DC
:102BC00007D00F4D1068A84203D00E4D1068A842E0
:102BD00005D121F08001586801431068816001200F
:102BE00082F83D0000BF002082F83C0000BF00BF1B
:102BF000C5E700000000014000040040000800405C
:102C0000000C00400040014010B504460CB9012002
:102C100010BD94F83D0028B9002084F83C002046FF
:102C200000F026F8022084F83D00211D206801F004
:102C300011FB012084F8460000BF84F83E0001210A
:102C40003F200155402001554120015500BF00BFE4
:102C5000012084F8420043200155442001554520BD
:102C6000015500BF012084F83D000020D0E700009E
:102C700038B5044629492068884230D100BF002079
:102C800000902748006840F0040025490860084685
:102C9000006800F00400009000BF00BF21482249F6
:102CA00008604FF08060486040211F48816000212B
:102CB000C1604FF480610161490041618900816117
:102CC0000021C16101624162FDF7D2FF08B1FDF749
:102CD00079FE00BF1449E162084684631DE0134990
:102CE0002068884219D100BF002000900C48001DC8
:102CF000006840F480300A49091D086008460068F1
:102D000000F48030009000BF00BF00221146182060
:102D1000FEF76AFC1820FEF757FC38BD000800409B
:102D200040380240B86002400407002000400140E3
:102D3000014691F83D00012801D001207047022092
:102D400081F83D000868C06840F001000B68D86059
:102D5000164B0868984213D00868B0F1804F0FD026
:102D6000134B086898420BD0124B0868984207D062
:102D7000114B0868984203D0104B086898420CD158
:102D80000868806800F00702062A0CD0086800680E
:102D900040F001000B68186005E00868006840F02A
:102DA00001000B6818600020C8E700000000014027
:102DB0000004004000080040000C004000400140BA
:102DC0002DE9F04104460D46002700BF94F83C0071
:102DD000012802D10220BDE8F081012084F83C00E6
:102DE00000BF022084F83D002068866826F0770640
:102DF00026F47F46206886602868502833D00CDC93
:102E0000202850D004DC00284BD0102851D149E0B4
:102E1000302849D040284CD139E060282DD0702886
:102E200007D0B0F5805F03D0B0F5005F41D10DE071
:102E300041E0D5E902136A68206801F0F1FA2068E0
:102E4000866846F077062068866034E0D5E902138C
:102E50006A68206801F0E4FA2068806840F48040E5
:102E60002168886027E0EA686968206801F0A8FBAB
:102E70005021206801F0DFFA1DE0EA6869682068E7
:102E800001F0B1FB6021206801F0D5FA13E0EA6897
:102E90006968206801F094FB4021206801F0CBFABA
:102EA00009E000BF00BF00BF2968206801F0C3FA35
:102EB00001E0012700BF00BF012084F83D0000BFF2
:102EC000002084F83C0000BF384684E77047704714
:102ED00010B5044620680069C0F34000D8B12068EE
:102EE000C068C0F34000B0B16FF002002168086113
:102EF000012020772068806900F0030018B1204687
:102F0000FFF7E5FF05E0204600F0E0F8204600F07E
:102F100094F90020207720680069C0F38000D8B1C0
:102F20002068C068C0F38000B0B16FF00400216871
:102F30000861022020772068806900F4407018B191
:102F40002046FFF7C4FF05E0204600F0BFF820460A
:102F500000F073F90020207720680069C0F3C000FA
:102F6000D8B12068C068C0F3C000B0B16FF00800ED
:102F700021680861042020772068C06900F0030000
:102F800018B12046FFF7A3FF05E0204600F09EF8A9
:102F9000204600F052F90020207720680069C0F335
:102FA0000010D8B12068C068C0F30010B0B16FF055
:102FB000100021680861082020772068C06900F4AB
:102FC000407018B12046FFF782FF05E0204600F070
:102FD0007DF8204600F031F9002020772068006954
:102FE00000F0010058B12068C06800F0010030B165
:102FF0006FF0010021680861204600F0B9FA2068EE
:103000000069C0F3C01058B12068C068C0F3C01098
:1030100030B16FF08000216808612046FFF7A4FD01
:1030200020680069C0F3801058B12068C068C0F300
:10303000801030B16FF0400021680861204600F038
:1030400098FA20680069C0F3401058B12068C06841
:10305000C0F3401030B16FF02000216808612046B5
:10306000FFF783FD10BD000010B586B004461421A3
:1030700001A8FDF757FA1249206888421DD100BF08
:10308000002000900F48006840F002000D490860E1
:103090000846006800F00200009000BF00BF8815DD
:1030A0000190022002900020039001200490022051
:1030B000059001A90448FDF7F1FE06B010BD00001F
:1030C00000080040303802400004024070472DE9FB
:1030D000F04104460D461646002700BF94F83C0018
:1030E000012802D10220BDE8F081012084F83C00D3
:1030F00000BF36B1042E1BD0082E31D00C2E5ED16D
:1031000045E02946206801F09FF92068806940F079
:103110000800216888612068806920F00400216827
:10312000886120688069296908432168886148E0CE
:103130002946206801F0B8F92068806940F40060F1
:10314000216888612068806920F480602168886136
:1031500020688069296940EA01202168886130E09F
:103160002946206801F0D4F92068C06940F00800C1
:103170002168C8612068C06920F004002168C86126
:103180002068C069296908432168C86119E0294697
:10319000206801F0F1F92068C06940F400602168FE
:1031A000C8612068C06920F480602168C861206817
:1031B000C069296940EA01202168C86101E001274E
:1031C00000BF00BF00BF002084F83C0000BF3846AD
:1031D00089E710B504460CB9012010BD94F83D00F4
:1031E00028B9002084F83C00204600F025F8022091
:1031F00084F83D00211D206801F02CF8012084F89E
:10320000460000BF84F83E0001213F2001554020C8
:1032100001554120015500BF00BF012084F8420044
:1032200043200155442001554520015500BF012090
:1032300084F83D000020D0E77047704770470000D9
:103240002DE9F04704460D4616461F464FF000088C
:1032500015B994F83E000BE0042D02D13F20005D2B
:1032600006E0082D02D14020005D01E04120005D14
:10327000022801D1BDE8F08715B994F83E000BE0B3
:10328000042D02D13F20005D06E0082D02D1402030
:10329000005D01E04120005D012817D10EB907B1A2
:1032A000E8E71DB9022084F83E0011E0042D03D1A7
:1032B00002213F2001550BE0082D03D102214020BF
:1032C000015505E002214120015501E00120D1E72F
:1032D00035B1042D1FD0082D38D00C2D6CD150E005
:1032E0005949606AC1635949606A01645849606A12
:1032F000C164216801F134023B463146606AFDF742
:103300002DFD08B10120B5E72068C06840F40070C9
:103310002168C86053E04C49A06AC1634B49A06A68
:1033200001644B49A06AC164216801F138023B463F
:103330003146A06AFDF712FD08B101209AE7206826
:10334000C06840F480602168C86038E03E49E06AA7
:10335000C1633E49E06A01643D49E06AC164216895
:1033600001F13C023B463146E06AFDF7F7FC08B14B
:1033700001207FE72068C06840F400602168C860D1
:103380001DE03149206BC1633049206B0164304935
:10339000206BC164216801F140023B463146206B3D
:1033A000FDF7DCFC08B1012064E72068C06840F448
:1033B00080502168C86002E04FF0010800BF00BFE4
:1033C000B8F1000F3ED101222946206800F094FF99
:1033D00020492068884201D1012000E0002028B166
:1033E0002068406C40F40040216848641949206816
:1033F000884213D02068B0F1804F0FD01649206862
:1034000088420BD015492068884207D014492068AB
:10341000884203D01349206888420DD12068806813
:1034200000F00709B9F1060F0CD02068006840F0E1
:1034300001002168086005E02068006840F0010094
:1034400021680860404615E71B43010883430108D3
:10345000C343010800000140000400400008004090
:10346000000C00400040014070B504460D460026A7
:1034700035B1042D0ED0082D16D00C2D28D11DE00D
:103480002068C06820F400702168C860606AFDF799
:10349000B7FA1FE02068C06820F480602168C86027
:1034A000A06AFDF7ADFA15E02068C06820F400605E
:1034B0002168C860E06AFDF7A3FA0BE02068C068E5
:1034C00020F480502168C860206BFDF799FA01E074
:1034D000012600BF00BF002E46D1002229462068E9
:1034E00000F00AFF21492068884201D1012000E054
:1034F000002090B100BF2068006A41F2111108401D
:1035000050B92068006A8910084028B92068406CCA
:1035100020F400402168486400BF00BF2068006AB2
:1035200041F21111084050B92068006A8910084022
:1035300028B92068006820F001002168086000BFF9
:103540001DB9012084F83E000EE0042D03D10121B5
:103550003F20015508E0082D03D1012140200155ED
:1035600002E0012141200155304670BD00000140BC
:103570007047704700BFFEE7014608684069C0F326
:103580008020B0B16FF480600A6850610020086349
:10359000202081F83D00002081F83E00086C40F0BA
:1035A0000400086400BF002081F83C0000BF012037
:1035B00070470020FCE700002DE9F84304468846E8
:1035C00015469946DDE908672068006840F4807078
:1035D00021680860334600224FF001112046009711
:1035E00000F088F860B12068006800F48070B0F5E1
:1035F000807F02D14FF4007020640320BDE8F8837F
:1036000008F0FE00216808613B4632462149204609
:1036100000F0B3F808B10120F0E700BF00200090EF
:1036200020684069009020688069009000BF00BF5A
:103630003A463146204600F002F950B1206C042889
:1036400005D12068006840F40070216808600120FE
:10365000D4E7B9F1010F03D1E8B22168086117E09E
:10366000C5F30720216808613A463146204600F03C
:10367000E6F850B1206C042805D12068006840F4B9
:103680000070216808600120B8E7E8B2216808618D
:103690000020B3E70200010070B504460D4616464F
:1036A00020E02046FFF768FF08B1012070BD681CCC
:1036B000C0B1FDF7DDFC801BA84200D895B9002001
:1036C0002063202084F83D00002084F83E00206C18
:1036D00040F02000206400BF002084F83C0000BFC0
:1036E0000120E3E720684069C0F380000028D8D0BB
:1036F0000020DBE72DE9F04104460D4617461E4643
:10370000DDF818801CE0701CD0B1FDF7B1FCA0EB17
:103710000800B04200D89EB900202063202084F821
:103720003D00002084F83E00206C40F02000206422
:1037300000BF002084F83C0000BF0120BDE8F081FC
:10374000C5F3074001280AD120684069A9B20840A2
:10375000A9B2884201D101200BE0002009E02068D5
:103760008069A9B20840A9B2884201D1012000E0D5
:103770000020B842C7D00020E0E72DE9F041044620
:103780000D4616461F463DE020684069C0F3802084
:10379000E8B12068006840F40070216808606FF4A8
:1037A00080602168486100202063202084F83D006B
:1037B000002084F83E00206C40F00400206400BF2C
:1037C000002084F83C0000BF0120BDE8F081701C9F
:1037D000C0B1FDF74DFCC01BB04200D896B9002027
:1037E0002063202084F83D00002084F83E00206CF7
:1037F00040F02000206400BF002084F83C0000BF9F
:103800000120E2E7C5F3074001280AD1206840699A
:10381000A9B20840A9B2884201D101200BE00020E2
:1038200009E020688069A9B20840A9B2884201D1A4
:10383000012000E000200028A6D00020C5E770B5D8
:1038400004460D46164620E02046FFF795FE08B1D7
:10385000012070BD681CC0B1FDF70AFC801BA842A6
:1038600000D895B900202063202084F83D00002076
:1038700084F83E00206C40F02000206400BF00204F
:1038800084F83C0000BF0120E3E720684069C0F3F2
:10389000C0100028D8D00020DBE730B50B4600214F
:1038A00000BF16E00A24B4EB107F05D9302404EBE6
:1038B000107403F8114005E0412404EB10740A3C35
:1038C00003F81140000100254C00641C1D554C1CE0
:1038D000E1B29142E6DB30BD08B500BF00200090A8
:1038E0000A48006840F4001008490860084600686B
:1038F00000F40010009000BF00BF002211462F20EE
:10390000FDF772FE2F20FDF75FFE08BD3038024044
:1039100000B587B0142102A8FCF704FE00BF002008
:1039200001906B48006840F004006949086008464F
:10393000006800F00400019000BF00BF00BF00203D
:1039400001900846006840F0800008600846006862
:1039500000F08000019000BF00BF00BF0020019078
:103960000846006840F0010008600846006800F062
:103970000100019000BF00BF00BF00200190084679
:10398000006840F0020008600846006800F002008D
:10399000019000BF00BF00224FF234314D48FDF7C7
:1039A00061FB00224FF444414B48FDF75BFB0122D1
:1039B00051034948FDF756FB00224FF404414748A4
:1039C000FDF750FB4FF234300290012003900020AD
:1039D0000490059002A93F48FDF760FA4FF40440B7
:1039E00002900120039000200490059002A93B481A
:1039F000FDF754FA4FF46440029001200390002038
:103A00000490059002A93448FDF748FA4FF44F702E
:103A100002904FF4881003900120049002A92F48CF
:103A2000FDF73CFA032002904FF488100390012028
:103A3000049002A92748FDF731FA0022114606201A
:103A4000FDF7D2FD0620FDF7BFFD0022114607203D
:103A5000FDF7CAFD0720FDF7B7FD0022114608203B
:103A6000FDF7C2FD0820FDF7AFFD00221146092039
:103A7000FDF7BAFD0920FDF7A7FD002211460A2037
:103A8000FDF7B2FD0A20FDF79FFD00221146172029
:103A9000FDF7AAFD1720FDF797FD01224FF2343103
:103AA0000C48FDF7DFFA01224FF444410A48FDF7C4
:103AB000D9FA00224FF400510748FDF7D3FA01224A
:103AC0004FF404410548FDF7CDFA07B000BD0000F2
:103AD000303802400004024000080240000002406A
:103AE00010B504460A4820600A4860600021A160C1
:103AF000E1604FF48041216100216161A161E161D8
:103B000021622046FDF7BAFA08B1FCF75BFF10BD51
:103B100000540040A086010000B58DB0002009903F
:103B20000A900B900C90079008901C216846FCF7B7
:103B3000F9FC1F481F4908600020486000211D480B
:103B400081606721C160002101618161FFF75CF83C
:103B500008B1FCF737FF4FF48050099009A91548C8
:103B6000FFF72EF908B1FCF72DFF1248FFF731FBE4
:103B700008B1FCF727FF00200790089007A90D481F
:103B8000FEF7F4FF08B1FCF71DFF60200090002055
:103B9000019002900490082269460648FFF797FAC0
:103BA00008B1FCF70FFF0348FFF75EFA0DB000BD48
:103BB00000080040740600201FB50020009001900E
:103BC000029003900E480F4908605320486000217E
:103BD0000C4881600521C160002101618161FFF70E
:103BE00013F808B1FCF7EEFE4FF4805000906946E0
:103BF0000448FFF7E5F808B1FCF7E4FE1FBD00003C
:103C000000400140BC06002010B500220D490E48BE
:103C100001F0A3FA08B1FCF7D5FE0C490A4801F0FF
:103C2000C9FD08B1FCF7CEFE0949074800F09EFE29
:103C300008B1FCF7C7FE044801F0BEFE08B1FCF76E
:103C4000C1FE10BD38000020AC0800203801002063
:103C50001401002000BFFEE72DE9FF4307461E4682
:103C6000DDF82C80254800883044802806DC234875
:103C700040889DF805100844402803DD002004B06A
:103C8000BDE8F08300242EE09DF8051007FB0141FC
:103C9000029830F81190002522E009FA05F000F4AE
:103CA000004058B1154A92782244D1B2134A127892
:103CB0002A44D0B2424603F0A1FC10E0B8F1000F54
:103CC00001D1012300E000231A460C4B9B782344CA
:103CD000D9B20A4B1B782B44D8B203F08FFC6D1C71
:103CE000B542DAD3641C9DF80500A042CCD8034845
:103CF00000883044014908803846C0E71C00002095
:103D00007FB581B004461D46099E0EE000962178DD
:103D10006B5C0846DDE90212FFF79EFF21788842BE
:103D200002D0207805B070BD641C20780028EDD149
:103D30002078F7E700BFFEE710B50248FDF779FEEF
:103D400010BD0000EC0D00202DE9F04704460D46A3
:103D500026683746D6F8408007F5306000EB4510FE
:103D6000D0F80890104880450BD909F40040B0F510
:103D7000004F06D14FF4004107F5306000EB4510CD
:103D800081602046FEF70FFB0748804508D920696F
:103D9000012805D104F2C4420121206802F0A2FBEF
:103DA0000020BDE8F08700000A30544F2DE9F047AD
:103DB00005460C46D5F800904E46D9F840A006F5C9
:103DC000306000EB4410D0F808802869012855D1F4
:103DD00008F0080008280FD1434882450BD908F4A1
:103DE0000040B0F5004F7BD14FF4004106F5306044
:103DF00000EB4410816073E008F02000202806D119
:103E0000202106F5306000EB4410816068E008F086
:103E10002800002864D1344882450CD908F40040B9
:103E2000B0F5004F07D14FF4004106F5306000EBCC
:103E30004410816054E004EBC40105F51F7000EBF1
:103E4000810706F5306000EB4410F9690069C0F3A2
:103E50001200081A386264B9B86930B905F2C44270
:103E60000121286802F03EFB03E0396A3869084402
:103E70003861E1B22846FDF74DFC31E01B48824530
:103E80001BD108F40040B0F5004F07D14FF40041BA
:103E900006F5306000EB4410816021E008F020005E
:103EA000202805D1202106F5306000EB4410816008
:103EB000E1B22846FDF72EFC12E06CB904EBC40118
:103EC00005F51F7000EB8100806928B905F2C44236
:103ED0000021286802F006FBE1B22846FDF71AFC33
:103EE0000020BDE8F08700000A30544F0A31544FDB
:103EF0002DE9F84F07460E46D7F80090C84606EB66
:103F0000C60107F13C0000EB8104A169206A8842E8
:103F100002D90120BDE8F88F216AA069451AE0683E
:103F2000A84200D2E568E81C4FEA900A17E0216A2F
:103F3000A069451AE068A84200D2E568E81C4FEA8B
:103F4000900A387CABB2F2B200904846216902F088
:103F50005BFF206928442061206A2844206208F51C
:103F6000106000EB4610806980B2504506D3A1690D
:103F7000206A884202D2A0690028D8D1216AA069AB
:103F800088420ED806F00F01012000FA01FB40F62E
:103F9000340050F8080020EA0B0040F6340141F8E4
:103FA00008000020B6E7704770B506460C46154677
:103FB000667002222146284600F0E4FC322002F01E
:103FC00063FF70BD70B506460C461546E6700922C3
:103FD0002146284600F0D6FC322002F055FF70BD85
:103FE00070B504460D460020607002222146284626
:103FF00000F0C8FC0A2002F047FF70BD70B504460F
:104000000D460020E07009222146284600F0BAFC47
:104010000A2002F039FF70BD704730B501460A46EC
:104020001378521C147843EA042030BD10B5FDF714
:1040300057FA10BD00B593B0302107A8FCF772FA0B
:10404000142102A8FCF76EFA00BF00200190254859
:10405000006840F08050234908600846006800F07E
:104060008050019000BF00BF00BF002001901E489B
:10407000006820F4404040F400401B4908600846B6
:10408000006800F44040019000BF00BF012007908D
:104090000004089002200D9041050E9119210F9106
:1040A0004FF4A8711091042111910721129107A8D2
:1040B000FEF7F2FA08B1FCF785FC0F20029002200F
:1040C0000390002004904FF480500590002006904B
:1040D000022102A8FEF7B0F908B1FCF773FC13B097
:1040E00000BD0000403802400070004003480068F6
:1040F00040F47000014908607047000088ED00E05E
:1041000010B50120024908700248FEF7E1FE10BD1B
:104110001A000020BC0600202148006840F0010081
:104120001F4908601F48006820F005001D4908600D
:104130000846006840F00A0008600846C06820F0A1
:104140000F00C8600846006A20F0FF0008620846B9
:10415000006A40F011000862480380694FF2F001E4
:1041600008434FF0804188610846806940F20111A0
:104170000843890788610846006A20F02200086227
:104180000846806840F0010088604FF47A70C86289
:10419000C006006840F001000860002048627047D7
:1041A00040380240000002402748006840F002000A
:1041B000254908602548006820F4A040234908608C
:1041C0000846006840F4204008600846C06820F4B3
:1041D0007040C8600846006A20F07F4008620846C8
:1041E000006A40F008500862194800684FF2F00178
:1041F0000843174908600846006840F20111084367
:104200001349086012480830006820F02200104965
:10421000083108600E481038006840F001000C4971
:10422000103908604FF47A70094914310860084861
:104230001838006840F0010005491839086000206E
:1042400003490C31086070474038024000000240CA
:104250001804004010B50268204B98420BD0B0F112
:10426000804F08D01E4B984205D01E4B984202D07A
:104270001D4B984203D122F070024B681A43174B32
:10428000984214D0B0F1804F11D0154B98420ED007
:10429000144B98420BD0144B984208D0134B9842C1
:1042A00005D0134B984202D0124B984203D122F40E
:1042B0004072CB681A4322F080034C6943EA04023F
:1042C00002608B68C3620B688362044B984201D121
:1042D0000B6903630123436110BD0000000001402E
:1042E0000004004000080040000C00400040014075
:1042F000004401400048014030B501F01F05012491
:1043000004FA05F3046A9C430462046A01F01F0581
:1043100002FA05F52C43046230BD70B50546AC6B5E
:10432000606AA84207D101202077E86918BB012004
:1043300084F83E001FE0A06AA84207D1022020773F
:10434000E869C0B901213F20015514E0E06AA842A4
:1043500007D104202077E86968B901214020015580
:1043600009E0206BA84206D108202077E86910B93F
:104370000121412001552046FEF75FFF00202077F4
:1043800070BD70B50546AC6B606AA84202D10120D1
:10439000207710E0A06AA84202D1022020770AE02C
:1043A000E06AA84202D10420207704E0206BA842F2
:1043B00001D1082020772046FEF740FF002020771B
:1043C00070BD70B50546AC6B606AA84204D101208F
:1043D000207784F83E001DE0A06AA84205D10220A3
:1043E000207701213F20015514E0E06AA84205D161
:1043F000042020770121402001550BE0206BA842CA
:1044000005D10820207701214120015502E001203B
:1044100084F83D002046FEF759FD0020207770BD4E
:1044200030B50C46816821F47F4142EA03252543DB
:104430002943816030BD0A46816821F0700142F055
:10444000070319438160704730B5056A25F00105FF
:104450000562026A4368846924F0700424F003044E
:104460000D682C4322F002028D682A430D4DA842AC
:1044700006D100BF22F00802CD682A4322F00402D0
:10448000084DA84207D123F4807323F400734D69CB
:104490002B438D692B43436084614D684563026201
:1044A00030BD00000000014030B5056A25F0100560
:1044B0000562026A4368846924F4E04424F4407489
:1044C0000D6844EA052422F020028D6842EA0512B4
:1044D0000E4DA84207D100BF22F08002CD6842EA0B
:1044E000051222F04002094DA84209D123F480634D
:1044F00023F400634D6943EA85038D6943EA85032C
:10450000436084614D688563026230BD00000140F4
:1045100030B5056A25F480750562026A4368C4698E
:1045200024F0700424F003040D682C4322F400727C
:104530008D6842EA05220F4DA84207D100BF22F440
:104540000062CD6842EA052222F48062094DA84249
:1045500009D123F4805323F400534D6943EA051332
:104560008D6943EA05134360C4614D68C563026207
:1045700030BD00000000014030B5056A25F48055CB
:104580000562036A4468C26922F4E04222F4407280
:104590000D6842EA052223F400538D6843EA05338F
:1045A000064DA84204D124F480444D6944EA8514A0
:1045B0004460C2614D680564036230BD0000014083
:1045C00030B50B461446026A056A25F001050562FE
:1045D000816921F0F00141EA041122F00A021A4334
:1045E0008161026230BD30B50B461446056A25F084
:1045F000100505628169026A21F4704141EA0431C3
:1046000022F0A00242EA03128161026230BD10B5BD
:104610000246002302F53070D2F8D44250F824004C
:1046200080F87430002010BD2DE9F04104460E469C
:1046300004F53070D4F8D41250F8210010B90320DA
:10464000BDE8F08104F53070D4F8D41250F8215050
:104650006978287804F53173D4F8D47253F8273088
:10466000DA6890470020EBE770B504460D462D4808
:104670000178204600F0A1FD00212A48007800F0D2
:104680000F0000EB800204F1140000EB82000182B5
:104690002448007800F00F0000EB800204F11400C1
:1046A00000EB8200418220480178204600F085FD21
:1046B00000211D48007800F00F0000EB800204F597
:1046C000AA7000EB820001821748007800F00F000A
:1046D00000EB800204F5AA7000EB8200418204F531
:1046E0003070D4F8D41250F82100C8B104F53171FB
:1046F000D4F8D42251F822108868804704F530712C
:10470000D4F8D42251F8220001F04AFB002104F52C
:104710003070D4F8D42240F822100020C4F8BC0233
:10472000002070BDB2010020B301002070B5044626
:1047300004F53070D4F8D41250F821500DB903208C
:1047400070BD286F01280BD16978287804F5317382
:10475000D4F8D46253F82630DA68904700202867EE
:104760000020EDE701460A2008800148704700005C
:10477000A801002070B5064681210B4800F043FCDB
:1047800004460121084800F03EFC05461CB14020CB
:10479000A0800520A0711DB14020A8800520A8712F
:1047A00029203080004870BD7001002070B5064699
:1047B00081210B4800F027FC04460121084800F045
:1047C00022FC05461CB14020A0800520A0711DB12F
:1047D0004020A8800520A87129203080004870BDA5
:1047E0007001002070B5064681210B4800F00BFCDB
:1047F00004460121084800F006FC05461CB1402093
:10480000A0800520A0711DB14020A8800520A871BE
:1048100029203080004870BD7001002070B504462A
:104820000E46782001F0BEFA054645B9002104F590
:104830003070D4F8D42240F82210022070BD04F564
:104840003070D4F8D41240F82150D4F8D41250F873
:104850002100C4F8BC02207CB8B905213348007897
:1048600000F00F0000EB800204F1140000EB820066
:1048700041822F48007800F00F0000EB800204F521
:10488000AA7000EB8200418216E0052127480078DB
:1048900000F00F0000EB800204F1140000EB820036
:1048A00041822348007800F00F0000EB800204F5FD
:1048B000AA7000EB82004182402303221B4801784A
:1048C000204600F041FE01211848007800F00F005A
:1048D00000EB800204F1140000EB8200018240230F
:1048E000032213480178204600F02EFE01211048D3
:1048F000007800F00F0000EB800204F5AA7000EBD6
:1049000082000182002085F8740004F53171D4F82A
:10491000D42251F822104868804764232A4604486C
:104920000178204600F028FE002087E7B201002031
:10493000B301002070B5044604F53070D4F8D412E9
:1049400050F8210008B9032070BD04F53070D4F888
:10495000D41250F8215064232A4603480178204697
:1049600000F00AFE0020EFE7B3010020024609B97B
:104970000320704702F53170D2F8D43240F823108A
:104980000020F6E72DE9F04104460E46174604F5EF
:104990003070D4F8D41250F8210010B90320BDE8CB
:1049A000F08104F53070D4F8D41250F8215094F806
:1049B0009C0203280FD195F8740050B9012085F8A6
:1049C00074003B46324605480178204600F0BFFEA1
:1049D00001E00120E3E70020E1E70000B201002050
:1049E0002DE9F84306460C4606F53070D6F8D41289
:1049F00050F821500027B84600200090814615B994
:104A00000320BDE8F883207800F06000002838D04B
:104A1000202875D16078801E0A2829D2DFE800F0AE
:104A2000130828282828281A0F05A078686626E089
:104A3000012205F16401304600F01AF91FE0608898
:104A40000012A8661BE0012205F16801304600F063
:104A50000FF914E001202867E088642801D2E0887B
:104A600000E0642002462946304600F0E0F806E007
:104A70002146304600F0CFF84FF0030900BF00BFD9
:104A800078E0607806281AD003DC38B1012861D1BB
:104A90005FE00A283DD00B285CD14CE096F89C02E0
:104AA000032805D102226946304600F0E1F805E00E
:104AB0002146304600F0AFF84FF0030951E060881E
:104AC0002221B1EB202F0FD1E088842801DD842042
:104AD00000E0E088074606F53170D6F8D41250F8A9
:104AE0002100D0F800800EE060882121B1EB202F5A
:104AF00009D1DFF88880E088092802D9092001E07F
:104B000031E0E08807463A464146304600F0B0F8CA
:104B100027E096F89C02032806D1012205F16C01DA
:104B2000304600F0A5F805E02146304600F073F865
:104B30004FF0030915E096F89C02032802D1A078F3
:104B4000E86605E02146304600F065F84FF00309BD
:104B500007E006E02146304600F05DF84FF003091B
:104B600000BF00BF06E02146304600F054F84FF089
:104B7000030900BF00BF484643E700009C01002036
:104B800070B504460D460026D4F8B802294642689E
:104B90002046904700B10326304670BD70B50446EC
:104BA0000D4694F89C02012804D0022803D0032863
:104BB0000CD101E000BF00BF6888012805D10020AA
:104BC000C4F8A402204600F064F804E02946204618
:104BD00000F021F800BF00BF70BD02460020704702
:104BE00002460020704770B506460C4615462B4617
:104BF00022460021304600F0BFFC002070BD70B599
:104C000006460C4615462B4622460021304600F04B
:104C10009EFD002070BD70B504460D4680212046E3
:104C200000F069FD0021204600F065FD70BD70B503
:104C300004460E4615460320C4F894024FF4AC70A7
:104C40000551001D05512B4632460021204600F03B
:104C500093FC002070BD10B504460520C4F89402F2
:104C600000231A461946204600F086FC002010BD9D
:104C700070B504460E4615460220C4F89402A5619C
:104C8000E5612B4632460021204600F060FD002001
:104C900070BD10B504460420C4F8940200231A46DF
:104CA0001946204600F053FD002010BD70B50546A2
:104CB0000C462DB92246064906A000F00EFA04E083
:104CC0002246034903A000F008FA014870BD000025
:104CD000880B0020437573746F6D2048494420434E
:104CE0006F6E666967000000024612200880014866
:104CF000704700005400002070B505460C462DB9E1
:104D00002246064906A000F0E8F904E022460349DD
:104D100003A000F0E2F9014870BD0000880B0020FC
:104D2000437573746F6D2048494420496E746572F1
:104D300066616365000000000246042008800148A7
:104D4000704700006800002070B505460C462246FA
:104D5000024903A000F0C1F9004870BD880B002093
:104D600041594B0070B505460C462DB922460649FF
:104D700006A000F0B2F904E02246034903A000F0C7
:104D8000ACF9014870BD0000880B002041594B5F11
:104D90004B4559424F4152440000000070B5054652
:104DA0000C461A202080FBF711FE014870BD000060
:104DB0006C00002070B504460D46E888012804D038
:104DC00029462046FFF727FF1EE094F89C020128A1
:104DD00004D0022803D0032810D109E000BF00202E
:104DE000A060012204F108012046FFF741FF0AE01C
:104DF0000122211D2046FFF73BFF04E02946204603
:104E0000FFF709FF00BF00BF70BDF8B504460E46AE
:104E1000002000900027002570880012082875D215
:104E2000DFE800F0C7040C20C7C7A5B5207CD4F884
:104E3000B4120A68694690470746C1E0207C40B931
:104E4000D4F8B802816A684688470746022078701D
:104E500007E0D4F8B802C16A6846884707460220CE
:104E60007870ADE0B078062878D2DFE800F003165D
:104E7000293C5063D4F8B402406838B1207CD4F89F
:104E8000B4124A6869469047074605E03146204615
:104E9000FFF7C1FE681CC5B267E0D4F8B4028068B1
:104EA00038B1207CD4F8B4128A6869469047074626
:104EB00005E031462046FFF7AEFE681CC5B254E05F
:104EC000D4F8B402C06838B1207CD4F8B412CA68EF
:104ED00069469047074605E031462046FFF79BFEAE
:104EE000681CC5B241E0D4F8B402006938B1207C36
:104EF000D4F8B4120A6969469047074605E031467E
:104F00002046FFF788FE681CC5B22EE051E0D4F8B9
:104F1000B402406938B1207CD4F8B4124A696946B9
:104F20009047074605E031462046FFF774FE681CAF
:104F3000C5B21AE0D4F8B402806940B1207CD4F83C
:104F4000B4128A6969469047074606E006E0314692
:104F50002046FFF760FE681CC5B206E031462046D9
:104F6000FFF759FE681CC5B200BF00BF28E0207CD7
:104F700030B9D4F8B802416B68468847074605E067
:104F800031462046FFF747FE681CC5B218E0207C7A
:104F900040B9D4F8B802016B684688470746072035
:104FA000787005E031462046FFF735FE681CC5B233
:104FB00006E031462046FFF72EFE681CC5B200BF52
:104FC00000BF05B1F8BDF088C0B1BDF8000080B1E8
:104FD000F088BDF80010884202DDBDF8000000E056
:104FE000F0880090BDF8002039462046FFF740FECB
:104FF00007E031462046FFF70EFE02E02046FFF7AD
:1050000048FE00BFDEE72DE9F84105460F462C4675
:105010002E464FF0000870883178884218DD3078CD
:1050200000900FE06946204600F020F804466078C2
:10503000052807D1A04698F80200B84200D106E042
:105040004FF000087088BDF800108842EADC00BF0D
:105050004046BDE8F881014600200A4602E0431CB4
:10506000D8B2521C1378002BF9D1704710B5024604
:1050700010460B88047823440B800378981810BDE1
:1050800070B504460D4694F89C02012804D002280D
:1050900003D003281AD101E000BF00BFE88802282E
:1050A00004D029462046FFF7B6FD14E00120E06059
:1050B000D4F8A40218B1E06840F00200E0600222D7
:1050C00004F10C012046FFF7D3FD04E029462046F9
:1050D000FFF7A1FD00BF00BF70BD2DE9F0410746FD
:1050E0000D46904600240FB9BDE8F0813E4630469B
:1050F000FFF7B1FF022101EB4000A8F8000098F88B
:1051000000002855601CC4B203202855601CC4B29E
:1051100008E030782855761C601CC4B20020285561
:10512000601CC4B230780028F3D100BFDCE7014630
:10513000002031B1012906D0022906D0032908D167
:1051400005E0002007E0032005E0012003E0032044
:1051500001E0032000BF00BF70472DE9F041044685
:105160000D46164614B90320BDE8F0810020C4F8AE
:10517000B802C4F8C402C4F8D0020DB1C4F8B452E5
:10518000012084F89C022670204600F045F907466D
:105190003846E9E72DE9F04104460D460026002790
:1051A0002946D4F8C802FCF722FB06463046FFF732
:1051B000BEFF07463846BDE8F0812DE9F0410446C0
:1051C0000D46002600272946D4F8C802FCF7DAFA73
:1051D00006463046FFF7ABFF07463846BDE8F0818C
:1051E0002DE9F04704460F469146002F56D104F1B1
:1051F0001405D4F89402022846D1D5E90201884268
:105200000FD9D5E90201401AA86049462046AA688C
:10521000FFF7F5FC00231A461946204600F0ACF9CA
:1052200032E0D5E90210884217D1E96868688842FF
:1052300013D36868D4F8981288420ED2002211461F
:105240002046FFF7DCFC0020C4F8980200231A4631
:105250001946204600F090F916E094F89C020328C5
:105260000BD1D4F8B802C06838B10020C4F8D40219
:10527000D4F8B802C168204688478021204600F053
:105280003AFA2046FFF7E7FC94F8A00250B3204614
:1052900000F0B4FA002084F8A00223E047F0800177
:1052A0002046FFF79AFC0646FF2E1BD0D6B994F88D
:1052B0009C02032816D104F52E7050F82600406990
:1052C00080B1C4F8D46204F52E7050F82600394637
:1052D0004269204690478046B8F1000F02D0404610
:1052E000BDE8F0870020FBE72DE9F04705460F46B3
:1052F00090464FF00009002F51D105F5AA76D5F858
:10530000940203286FD1D6E90201884210D9D6E968
:105310000201401AB060D6E90201884201D2B068A9
:1053200000E0F068024641462846FFF75CFC5AE080
:1053300095F8AA0200F01F0020B1012804D002282D
:1053400012D109E0002411E040F2AE20415D284670
:10535000FFF746FC044609E040F2AE20415D2846D6
:10536000FFF73BFC044601E0002400BF00BF94B9F6
:1053700095F89C0203280ED105F52E7050F82400F4
:10538000006940B1C5F8D44205F52E7050F82400EC
:105390000169284688472846FFF77BFC23E007F091
:1053A0007F012846FFF719FC0446FF2C1BD0D4B917
:1053B00095F89C02032810D105F52E7050F82400B2
:1053C000806950B1C5F8D44205F52E7050F824001C
:1053D00039468269284690478146B9F1000F02D0CC
:1053E0004846BDE8F0870020FBE7014600207047F3
:1053F00070B504460025012084F89C02D4F8B80258
:1054000038B12179D4F8B80242682046904700B1FB
:105410000325284670BD000010B5044620780028FA
:105420002AD11648C0F80845C4F8C8024FF0A04079
:10543000124908600420486002211048C160002120
:105440000161022181610021C16101624162C16289
:105450000163FCF765FE08B1FBF7B4FA8021074849
:10546000FCF715F9402200210448FCF715F98022C9
:1054700001210248FCF710F9002010BDEC0D0020BE
:1054800010B50246D2F8C83201F08000802809D158
:1054900001F07F0000EBC00403F13C0000EB84004E
:1054A000807810BD01F07F0000EBC00403F51F7091
:1054B00000EB84008078F4E770B504460D4604F5EF
:1054C0002E70D4F8D41250F8210008B9032070BD12
:1054D00094F89C02032811D104F52E70D4F8D4124C
:1054E00050F82100006A48B104F52E70D4F8D412A7
:1054F00050F821002946026A204690470020E6E73E
:1055000070B504460D4604F52E70D4F8D41250F848
:10551000210008B9032070BD94F89C02032811D122
:1055200004F52E70D4F8D41250F82100406A48B126
:1055300004F52E70D4F8D41250F821002946426A9E
:10554000204690470020E6E72DE9F04704460F4645
:1055500015461E464FF00008C1462B4632463946D6
:10556000D4F8C802FCF781F980464046FFF7DFFD1A
:1055700081464846BDE8F0872DE9F04704460D46D0
:1055800016461F464FF00008C1463B4632462946A4
:10559000D4F8C802FCF7AFF980464046FFF7C7FDD4
:1055A00081464846BDE8F08770B5044600250120D5
:1055B00084F89C020020C4F894026060C4F8A4023D
:1055C00084F8A002D4F8B80258B1D4F8B802406800
:1055D00038B12179D4F8B80242682046904700B12A
:1055E00003254023002211462046FFF7ADFF01218D
:1055F0004FF4B27001534021001F0151402300229B
:1056000080212046FFF7A0FF0121A18440212162D3
:10561000284670BD014691F89C02042803D191F8F8
:105620009D0281F89C020020704710B5044694F852
:105630009C0203280BD1D4F8B80240B1D4F8B802C8
:10564000C06920B1D4F8B802C1692046884700205B
:1056500010BD02461174002070472DE9F041044648
:105660000D46002600272946D4F8C802FCF780FE24
:1056700006463046FFF75BFD07463846BDE8F08139
:1056800070B504460D46294604F2AA2000F077F8CA
:105690000120C4F894024FF42C70005BC4F8980207
:1056A00094F8AA0200F01F0020B1012809D00228B6
:1056B00015D10DE004F2AA21204600F083F9064638
:1056C00016E004F2AA21204600F013FB06460FE084
:1056D00004F2AA21204600F0CCF9064608E094F82E
:1056E000AA0200F08001204600F005F8064600BF3F
:1056F00000BF304670BD2DE9F04104460D4600263E
:1057000000272946D4F8C802FCF721F9064630469E
:10571000FFF70DFD07463846BDE8F08170B5044639
:1057200000250026D4F8C802FCF746FE05462846A8
:10573000FFF7FDFC0646304670BD014691F89C021D
:1057400081F89D02042081F89C02002070472DE919
:10575000F04704460D4616461F464FF00008C14666
:105760003B4632462946D4F8C802FCF735F9804654
:105770004046FFF7DCFC81464846BDE8F08770B53F
:1057800005460E46344620782870641C20786870E0
:10579000641C2046FEF741FC6880641C641C2046A3
:1057A000FEF73BFCA880641C641C2046FEF735FC19
:1057B000E88070BD38B504460D46002000900DB954
:1057C000032038BDC4F8B85204F52E70D4F8D412B2
:1057D00050F82100C06A50B104F52E70D4F8D422DC
:1057E00050F82200C16A68468847C4F8D002D4F84D
:1057F000D802401CC4F8D8020020E2E7014600208D
:10580000704770B504460D46A88810BBE88800BBF9
:10581000688880281DD2A87800F07F0694F89C0242
:10582000032804D129462046FFF7F5F915E084F84E
:105830009E6231462046FFF710FF2046FFF729FA07
:105840001EB1022084F89C0207E0012084F89C022B
:1058500003E029462046FFF7DEF970BD70B5044627
:105860000D460026D4F8B80230B1D4F8B802294663
:105870000268204690470646304670BD70B5044623
:105880000E460025B0783D4908700846007801288A
:1058900005D931462046FFF7BEF9032070BD94F8C4
:1058A0009C02022802D0032859D11FE03348007817
:1058B000C0B1324800786060304801782046FFF778
:1058C000CDFF05463DB131462046FFF7A4F9022041
:1058D00084F89C0209E02046FFF7DBF9032084F8F6
:1058E0009C0202E02046FFF7D4F943E02348007809
:1058F00070B9022084F89C022048007860601F483C
:1059000001782046FFF73CF92046FFF7C2F925E071
:105910001A490978606888421DD021792046FFF72E
:105920002FF9164800786060144801782046FFF788
:1059300095FF05465DB131462046FFF76CF92179A8
:105940002046FFF71DF9022084F89C0206E020465D
:10595000FFF79FF902E02046FFF79BF90AE0314686
:105960002046FFF758F9054801782046FFF708F967
:10597000032500BF00BF284690E700003401002047
:1059800070B505460C466088012805D1C5F8A4020B
:105990002846FFF77EF90EE06088022807D1A0882C
:1059A000001285F8A0022846FFF773F903E02146AC
:1059B0002846FFF730F970BD10B504462046FFF7C2
:1059C000ADFE10BD70B504460D460026287800F0E7
:1059D000600088B1202802D0402842D100E000BFFA
:1059E00004F52E70D4F8D41250F8210029468268AC
:1059F00020469047064639E068780A282AD2DFE830
:105A000000F01A24291F290A0529150F29462046C6
:105A1000FFF7FBF923E029462046FFF7F2FE1EE0E0
:105A200029462046FFF72AFF064618E02946204669
:105A3000FFF7C0F913E029462046FFF721FB0EE0EF
:105A400029462046FFF79CFF09E029462046FFF73C
:105A5000A5F804E029462046FFF7DDF800BF00BFA7
:105A600004E029462046FFF7D6F800BF00BF3046C5
:105A700070BD2DE9F04705460F464FF000093C790F
:105A8000387800F06000F8B1202802D040287DD19D
:105A900000E000BF21462846FFF79FF80646FF2E8C
:105AA00011D086B9C5F8D46205F52E7050F82600DD
:105AB000806840B105F52E7050F82600394682689E
:105AC00028469047814610E1787800287AD001284E
:105AD0002FD003286ED195F89C02022802D003280B
